:020000040800F2
:10000000B0180020752000087D2000087F2000081F
:1000100081200008832000088520000800000000DF
:10002000000000000000000000000000E1020008E5
:10003000892000080000000081030008E503000893
:100040008F2000088F2000088F2000088F200008D4
:100050008F2000088F2000088F2000088F200008C4
:100060008F2000088F2000088F2000088F200008B4
:100070008F2000088F2000088F2000088F200008A4
:100080008F2000088F2000088F2000088F20000894
:100090008F2000088F2000088F2000088F20000884
:1000A0008F2000088F2000088F2000088F20000874
:1000B0008F2000088F2000088F2000088F20000864
:1000C0008F2000088F2000088F2000088F20000854
:1000D0008F2000088F2000088F2000088F20000844
:1000E0008F2000088F2000088F2000088F20000834
:1000F0008F2000088F2000088F2000088F20000824
:100100000000000000000000000000008F20000838
:100110008F2000088F2000088F2000088F20000803
:100120008F2000088F2000088F2000088F200008F3
:100130008F2000088F200008000000000000000051
:100140008F2000088F2000088F200008000000008A
:10015000000000000000000000000000000000009F
:1001600000000000000000008F2000088F20000821
:100170008F200008000000000000000000000000C8
:10018000000000008F20000800F002F800F062F884
:100190000AA090E8000C82448344AAF10107DA45E2
:1001A00001D100F057F8AFF2090EBAE80F0013F0D2
:1001B000010F18BFFB1A43F001031847B4360000C3
:1001C000D43600000A444FF0000C10F8013B13F045
:1001D000070408BF10F8014B1D1108BF10F8015BA0
:1001E000641E05D010F8016B641E01F8016BF9D193
:1001F00013F0080F1EBF10F8014BAD1C0C1B09D1EA
:100200006D1E58BF01F801CBFAD505E014F8016B5B
:1002100001F8016B6D1EF9D59142D6D370470000ED
:100220000023002400250026103A28BF78C1FBD8FF
:10023000520728BF30C148BF0B6070471FB503F09D
:10024000BDF91FBD10B510BD03B4FFF7FBFF03BC24
:1002500002F052F802F022F81146FFF7EFFF02F029
:10026000FBF80448002102F061F902F007F902F0FE
:100270003AF800003001002080F309887047EFF35E
:1002800009807047684680F3098804480078C007F1
:1002900014BF0220032080F3148870473038000810
:1002A000DFF818C0EFF305831B0618BF6047EFF3B4
:1002B0001483DB0708BF604700DF7047D7250008BD
:1002C000DFF818C0EFF305831B0618BF6047EFF394
:1002D0001483DB0708BF604700DF7047B9270008B9
:1002E000EFF30980816911F8021C99BB90E80F10A7
:1002F00010B5E047BDE81040EFF3098C8CE807002B
:100300001C4B93E80600914208BF704781B11EF074
:10031000100F06BF2CED108A0120002081F8250067
:100320002CE9F00FC1F828C00CB402F0C9FD0CBCD8
:100330001A60D2F828C0BCE8F00F92F82500002817
:100340001ABFBCEC108A6FF0120E6FF0020E8CF325
:100350000988704710B5084A1268914209D8074CBD
:1003600054F8214090E80F10A047EFF3098C8CE877
:100370000F0010BD5C0100200823000808230008BE
:1003800010B502F063FCBDE81040154B93E8060081
:10039000914208BF7047EFF3098C1EF0100F06BFA3
:1003A0002CED108A0120002081F825002CE9F00FA7
:1003B000C1F828C00CB402F083FD0CBC1A60D2F85E
:1003C00028C0BCE8F00F92F8250000281ABFBCEC4A
:1003D000108A6FF0120E6FF0020E8CF309887047CE
:1003E0005C01002010B502F033FECCE710B502F03E
:1003F000F1F802F02DFEC6E730B502460B460020AC
:1004000000210AE0555C85EA2024FD4D35F81450A2
:1004100085EA0025A8B24D1CA9B29942F2DB30BD95
:100420006EE0F8480078062862D2DFE800F0610349
:10043000111F4553072001F06FFD212002F000F845
:10044000072001F05BFD4FF4967001F0F9FF56E0D4
:10045000052001F061FD212001F0F2FF052001F0EF
:100460004DFD40F6B83001F0EBFF48E0052001F00B
:1004700053FD212001F0E4FF052001F04DFD212076
:1004800001F0DEFF052001F047FD212001F0D8FF3B
:10049000052001F041FD212001F0D2FF052001F0EF
:1004A0003BFD212001F0CCFF052001F027FD4FF49A
:1004B000FA7001F0C5FF22E0072001F02DFD40F6A3
:1004C000B83001F0BDFF072001F018FD0020CD4934
:1004D000087014E0052001F01FFD40F6B83001F06F
:1004E000AFFF052001F00AFD0020C649087006E0B4
:1004F000072001F003FD052001F000FD00BF00BF53
:100500008FE700B58BB00020BF490870BF4800F0EE
:1005100023FC684600F0E0FCBD480090BA4801901A
:100520003020ADF80C0000200490802005900020C1
:10053000069007906946B54800F0B0FC0121B34829
:1005400000F0D7FC0BB000BDF0B505460C46012607
:100550000027601E295CA01E285C01EB002087B2EA
:10056000A01E81B22846FFF747FFAA490880084627
:100570000088B84200D100E000260EB10120F0BD95
:100580000020FCE7A4488078452802D10120A34937
:100590000870704770B505460C469C48283800F036
:1005A000DBFB9F489F490860084645601020886033
:1005B000084684810020086180204861002088610D
:1005C000C8619248283800F069FC01218F4828381A
:1005D00000F08FFC8D48143800F0BEFB924800F00C
:1005E0007BFC8F48001F904908608B4848600020C2
:1005F00088602020888100200861802048610020D8
:100600008861C8618148143800F048FC01217F48A6
:10061000143800F06EFC70BD10B541F2883001F066
:100620000FFF05218148FFF7B5FF4FF47A7001F005
:1006300007FF0A217E48FFF7ADFF4FF47A7001F003
:10064000FFFE0F217B48FFF7A5FF4FF47A7001F002
:10065000F7FE13217848FFF79DFF4FF47A7001F001
:10066000EFFE0A217548FFF795FF4FF47A7001F00D
:10067000E7FE0B217248FFF78DFF4FF47A7001F00F
:10068000DFFE13216F48FFF785FF4FF47A7001F00A
:10069000D7FE09216C48FFF77DFF4FF47A7001F017
:1006A000CFFE09216948FFF775FF4FF47A7001F01A
:1006B000C7FE10BD70B505460C465448143000F016
:1006C0004BFB5348001D5749086008464560102001
:1006D00088600846848100200861802048610020ED
:1006E0008861C8614948143000F0D8FB01214748AF
:1006F000143000F0FEFB70BD0324FFE04248007898
:1007000055287CD1032410E03F48005D392805DCE2
:100710003D48005D30383C49085504E03A48005DEA
:10072000373839490855601CC4B20B2CECDB36480D
:1007300000793549C97800EB0110454908803248F5
:1007400080793149497900EB0110424908802E48EF
:10075000007A2D49C97900EB01103F4908803C48D7
:1007600000883C49098808443949088008460078CF
:100770003A49C873364800880012887335480078B3
:100780004874344800880012087433480078C874EC
:10079000314800880012887414213048FFF72CFE7D
:1007A0001C490880084600782C494875194800887B
:1007B000001208750120134908702B212848FFF703
:1007C000E9FE4FF4FA6001F03BFE134880784528BB
:1007D00002D105200B4908700B212248FFF7DAFEF1
:1007E0004FF47A7001F02CFE16211C48FFF7D2FE60
:1007F0004FF47A7001F024FE01211B4836E073E0CB
:10080000F835000817000020640200206C00024048
:100810002444004030000020440200202E0000202C
:1008200028380140EC01002018020020320000208E
:1008300037000020410000205A000020C80000209E
:10084000D20000206D0000208000002089000020E0
:100850000C0000200E00002010000020D601002017
:1008600092000020BD000020E9000020FFF792FE6A
:100870000020894908704FF47A7001F0E1FDFFF71C
:1008800040FE0C218548FFF785FE85488078532877
:1008900002D104208049087081488078452829D1F8
:1008A00005207D49087001207E4908707E48007847
:1008B0007E49097801EB41017D4A50547D48017819
:1008C0007A48007800EB4000401C11547A480178C7
:1008D0007648007800EB4000801C11547348007883
:1008E000401C7249087005E074480078302801D037
:1008F000FFF707FE4FF47A7001F0A2FDFEE6FFF766
:100900008BFE6F4800786F4948706D480088000A78
:1009100008706D48007848716B480088000A0871BB
:1009200069480068000CC87067480068000E88704D
:1009300066480078C87165480088000A8871644874
:100940000078487262480088000A0872614800789E
:10095000487360480088000A08735E480068000C0D
:10096000C8725C480068000E887200215A4801F085
:10097000DDFD5A4908600021594801F0D7FD594969
:10098000086058E047480078002854D005205649B0
:1009900008700320404908703FE02B215348FFF7BF
:1009A000F9FD4FF4FA6001F04BFD0B215048FFF7C1
:1009B000F1FD4FF47A7001F043FD16214148FFF735
:1009C000E9FD4FF47A7001F03BFD01214948FFF742
:1009D000E1FD4FF47A7001F033FD0C212F48FFF751
:1009E000D9FD4FF4FA7001F02BFD3F480078401E0E
:1009F0003D4908702A488078532807D104202649A9
:100A0000087000203849087026490870244880780A
:100A1000452802D101202349087033480078002876
:100A2000BBD12048007810B105201B49087032481E
:100A3000008801F005FDA5E710B501F00DFD01F0FE
:100A400097FB01F08AFA00F097F800F060F800F0E8
:100A5000FEF800F0C6F800F0DFF8012280212748F8
:100A600001F0D3F901224021244801F0CEF90122FE
:100A70008021234801F0C9F901224021204801F0DA
:100A8000C4F900211F4801F051FD1F49086001F021
:100A9000F5FC002010BD000017000020DD00002044
:100AA00044020020150000200C0000201600002049
:100AB0007C0100200E0000201000002064020020B5
:100AC00018000020D60100201C000020200000207B
:100AD0002200002024000020D83500080400002057
:100AE000E8350008080000201400002092000020D3
:100AF000BD000020E9000020120000200038014065
:100B000000440040C83500080000002070471CB5B4
:100B10000121480400F0DDFE0420009002208DF841
:100B2000040001208DF8070000208DF80600032046
:100B30008DF8050069464FF0904000F084FA0820D7
:100B4000009002208DF8040000208DF8070003209B
:100B50008DF8050069464FF0904000F074FA0722C6
:100B600002214FF0904000F0EDFA072203214FF0F0
:100B7000904000F0E7FA1CBD1CB50121C80400F04C
:100B8000A8FE0121880300F0B1FE10200090022091
:100B90008DF8040001208DF8070000208DF8060074
:100BA00003208DF805006946634800F04CFA2020C8
:100BB000009002208DF8040000208DF8070003202B
:100BC0008DF8050069465C4800F03DFA07220421D3
:100BD000594800F0B7FA07220521574800F0B2FA49
:100BE0001CBD00B587B00121880300F07FFE4FF4E3
:100BF000E1300190002006900C2005900020049028
:100C00000390029001A94D4800F01DFF01214B48BF
:100C100000F0A8FF07B000BD00B587B0012148046F
:100C200000F071FE4FF416500190002006900C2049
:100C30000590002004900390029001A9404800F024
:100C400002FF01213E4800F08DFF07B000BD00B556
:100C50008BB00121084600F03CFE684600F03CF9EC
:100C600036482830009037480190102002900F201D
:100C7000ADF80C0000200490802005900020069024
:100C800007906946304800F009F9684600F024F9F9
:100C90002A48243000902D48019000200290202006
:100CA000ADF80C00002004908020059000200690F4
:100CB000079069462448143000F0F0F801212248DA
:100CC000143000F016F9684600F006F91C4824308C
:100CD00000901F480190002002903020ADF80C00D9
:100CE000002004908020059000200690079069461F
:100CF0001548283000F0D2F801211348283000F0C0
:100D0000F8F8684600F0E8F80D48283000901148DF
:100D10000190102002900A20ADF80C0000200490F1
:100D200080200590002006900790694606483C30D8
:100D300000F0B4F80BB000BD0008004800380140D6
:100D400000440040EA000020440002404402002029
:100D5000640200209402002001684FF6FE721140E8
:100D600001600021016041608160C1608D4988425D
:100D700008D18C490839496841F00F01894A083A7D
:100D800051608AE087491431884208D18549083981
:100D9000496841F0F001834A083A51607DE0814999
:100DA0002831884208D17F490839496841F4706187
:100DB0007C4A083A516070E07A493C31884208D157
:100DC00078490839496841F47041764A083A5160D7
:100DD00063E074495031884208D172490839496842
:100DE00041F470216F4A083A516056E06D49643110
:100DF000884208D16B490839496841F47001694A51
:100E0000083A516049E067497831884208D165491C
:100E10000839496841F07061624A083A51603CE023
:100E20006149884206D1011F096841F00F01021F84
:100E3000116032E05C491431884208D15A49091FD7
:100E4000096841F0F001584A121F116025E0564927
:100E50002831884208D15449091F096841F470615A
:100E6000514A121F116018E04F493C31884208D1A5
:100E70004D49091F096841F470414B4A121F116026
:100E80000BE049495031884207D14749091F096899
:100E900041F47021444A121F1160704710B50022BE
:100EA000026847F6F0739A430C6A8B6823430C6917
:100EB00023434C6923438C692343CC6923434C6A05
:100EC00023438C6A23431A4302608B8943600B6877
:100ED00083604B68C36010BD002101604160816088
:100EE0008181016141618161C1610162416281620F
:100EF000704721B1026842F00102026004E002681A
:100F00004FF6FE731A400260704741607047014619
:100F1000486880B270471AB103680B43036002E06F
:100F200003688B430360704701460020002201F0F4
:100F300080531BB11C4B083B1A6802E0194B083B5D
:100F40001A6802EA01030BB1012000E0002070479B
:100F500000F0805119B11449091F086002E01149DD
:100F600008394860704701460020002201F0805394
:100F70001BB10D4B083B1A6802E00A4B083B1A688C
:100F800002EA01030BB1012000E00020704700F0ED
:100F9000805119B10449091F086002E0014908396C
:100FA00048607047080002400804024010B504463B
:100FB000B4F1904F09D10121480400F0B1FC0021A7
:100FC0004FF4003000F0ACFC3CE07048844208D1A3
:100FD0000121000200F0A4FC0021200200F0A0FC8E
:100FE00030E06B48844208D10121000200F098FCF7
:100FF0000021200200F094FC24E06648844209D1DC
:101000000121080500F08CFC00214FF4801000F055
:1010100087FC17E06048844208D10121400200F0BB
:101020007FFC0021600200F07BFC0BE05B48844207
:1010300008D10121880500F073FC00214FF48000E5
:1010400000F06EFC10BDF0B50A460021002300241C
:1010500000BF3DE0012505FA01F3156805EA030428
:101060009C4234D11579012D02D01579022D16D16B
:1010700085684F000326BE40B543856055794E0014
:10108000B540866835438560868801258D40AE432E
:101090008680868895798D40ADB22E43868005681E
:1010A0004F000326BE40B543056015794E00B5409C
:1010B000066835430560C5684F000326BE40B5434A
:1010C000C560D5794E00B540C6683543C560491C3A
:1010D0001029BFD3F0BD4FF6FF71016000210171EF
:1010E0000221417100218171C17170474FF480323A
:1010F0000A43C261C161C261C269C26970470246E6
:101100000020138A0B400BB1012000E00020704743
:101110000146088A704702460020938A0B400BB1B3
:10112000012000E0002070470146888A70478161F5
:101130007047018570470AB1816100E00185704701
:1011400081827047F0B5002300244D07ED0E02FAAE
:1011500005F3CE1000F1200555F826504E07F70E86
:101160000F26BE40B543CF1000F1200646F82750A9
:10117000CE1000F1200555F8265045EA0304CE10A4
:1011800000F1200545F82640F0BD000000040048AD
:1011900000080048000C00480010004800140048F7
:1011A000F948006840F00100F749086008464068C7
:1011B000F6490840F449486008460068F449084088
:1011C000F14908600846006820F48020086008465D
:1011D000406820F4FE0048600846C06A6FF30D00C6
:1011E000C8620846006BEB490840E74908630020E5
:1011F000886070470021E44A9170114688707047FA
:1012000010B50246002100230020511111B9DE4C17
:1012100023680BE0012902D1DB4C236A06E0042994
:1012200002D1D94C636801E0D74C636A02F01F0118
:1012300001248C401C400CB1012000E0002010BDB6
:1012400038B5002000900024002500BF1120FFF7D2
:10125000D7FF05460098401C00900098B0F5A04FBD
:1012600001D0002DF2D01120FFF7CAFF08B10124F0
:1012700000E00024204638BD01460020C24A106824
:1012800020F0F80040EAC10010607047C2490860D1
:101290007047BD49096A21F00101BB4A116211463C
:1012A000096A21F0040111621146096A01431162C1
:1012B0007047B549096A21F01801B34A1162114615
:1012C000096A014311627047B44908607047AE4A29
:1012D000526822F47412AC4B5A601A46526840EAC3
:1012E00001031A43A84B5A607047AB490866704720
:1012F00001460020A44AD06A20F00F000843D062C3
:101300007047A549C86470479F49C8717047014636
:1013100000209D4A506820F0030008435060704749
:101320009948406800F00C00704701460020964A3A
:10133000506820F0F00008435060704701460020DC
:10134000914A506820F4E0600843506070470146BD
:1013500000208D4A506820F4605040EAC10050607F
:1013600070472DE9F0410021002400278C4600231E
:10137000002200250026DFF81082D8F8048008F04B
:101380000C0121B1042907D0082930D109E0DFF888
:101390001082C0F800802FE0DFF80482C0F80080DF
:1013A0002AE0DFF8E481D8F8048008F47014DFF84C
:1013B000D881D8F8048008F480374FF0020808EB91
:1013C000944427B9DFF8DC8104FB08F20DE0DFF874
:1013D000B881D8F82C8008F00F0808F1010CDFF86C
:1013E000C081B8FBFCF808FB04F2026004E0DFF8FF
:1013F000B081C0F8008000BF00BFDFF88C81D8F852
:10140000048008F0F0010909DFF89C8118F80160F8
:10141000D0F8008028FA06F8C0F80480DFF8688168
:10142000D8F8048008F4E061090ADFF87C8118F834
:101430000130D0F8048028FA03F8C0F80880DFF8FB
:101440004881D8F8048008F46051C90ADFF858814F
:1014500018F80150D0F8048028FA05F8C0F80C807C
:10146000DFF82481D8F82C8008F4F8710909DFF836
:101470003C8138F8113003F01008B8F1000F04D0A7
:10148000B2FBF3F8C0F8108003E0D0F80080C0F899
:101490001080DFF8F480D8F82C8008F47851490ADD
:1014A000DFF8088138F8113003F01008B8F1000FA8
:1014B00004D0B2FBF3F8C0F8148003E0D0F8008049
:1014C000C0F81480DFF8C080D8F8308008F0100829
:1014D000B8F1100F04D0DFF8C880C0F8188003E01E
:1014E000D0F80080C0F81880DFF89C80D8F83080F1
:1014F00008F02008B8F1200F04D0DFF8A480C0F86D
:101500001C8003E0D0F80080C0F81C80DFF87880F1
:10151000D8F8308008F48078B8F5807F0AD1D0F808
:101520000080904506D1B54204D14FEA4208C0F888
:10153000208003E0D0F80C80C0F82080DFF84880DD
:10154000D8F8308008F40078B8F5007F0AD1D0F8D8
:101550000080904506D1B54204D14FEA4208C0F858
:10156000248003E0D0F80C80C0F82480DFF81880D5
:10157000D8F8308008F00308B8F1000F18D1D0F87F
:101580000C80C0F828803CE00010024000C0FFF84A
:10159000FFFFF6FECCFC000F0000424280044242F6
:1015A00000127A0000093D00F00000200001002038
:1015B000DFF8FC83D8F8308008F00308B8F1010F99
:1015C00004D1D0F80080C0F828801AE0DFF8E0836A
:1015D000D8F8308008F00308B8F1020F04D14FF4B6
:1015E0000048C0F828800CE0DFF8C483D8F83080C9
:1015F00008F00308B8F1030F03D1DFF8B883C0F88F
:101600002880DFF8AC83D8F8308008F44038B8F18F
:10161000000F04D1D0F80880C0F82C8028E0DFF853
:101620009083D8F8308008F44038B8F5803F04D172
:10163000D0F80080C0F82C801AE0DFF87483D8F866
:10164000308008F44038B8F5003F04D14FF400482A
:10165000C0F82C800CE0DFF85883D8F8308008F40C
:101660004038B8F5403F03D1DFF84883C0F82C80FC
:10167000DFF83C83D8F8308008F44028B8F1000F38
:1016800004D1D0F80880C0F8308028E0DFF820834B
:10169000D8F8308008F44028B8F5802F04D1D0F86D
:1016A0000080C0F830801AE0DFF80483D8F830807A
:1016B00008F44028B8F5002F04D14FF40048C0F8D2
:1016C00030800CE0DFF8E882D8F8308008F4402859
:1016D000B8F5402F03D1DFF8DC82C0F83080DFF8A6
:1016E000D082D8F8308008F44018B8F1000F04D147
:1016F000D0F80880C0F8348028E0DFF8B482D8F849
:10170000308008F44018B8F5801F04D1D0F800806C
:10171000C0F834801AE0DFF89882D8F8308008F4F6
:101720004018B8F5001F04D14FF40048C0F83480C9
:101730000CE0DFF87C82D8F8308008F44018B8F567
:10174000401F03D1DFF86C82C0F83480DFF860827C
:10175000D8F8308008F44008B8F1000F04D1D0F870
:101760000880C0F8388028E0DFF84482D8F830805C
:1017700008F44008B8F5800F04D1D0F80080C0F814
:1017800038801AE0DFF82882D8F8308008F4400862
:10179000B8F5000F04D14FF40048C0F838800CE0D1
:1017A000DFF80C82D8F8308008F44008B8F5400F14
:1017B00003D1DFF80082C0F83880BDE8F081002155
:1017C000010F31B17A4AD26A22F47852784BDA6248
:1017D00005E0774AD26A22F4F872754BDA62744AED
:1017E000D26A0243724BDA6270470021010F31B1B5
:1017F0006F4A126B22F020026D4B1A6305E06C4AAF
:10180000126B22F010026A4B1A63694A126B024390
:10181000674B1A6370470021010F31B1644A126BA4
:1018200022F40072624B1A6305E0614A126B22F4E3
:1018300080725F4B1A635E4A126B02435C4B1A6301
:1018400070470021010F062927D2DFE801F02603A7
:101850000A11181F564A126B22F00302544B1A63E6
:101860001CE0534A126B22F44032514B1A6315E0CC
:101870004F4A126B22F440224D4B1A630EE04C4A41
:10188000126B22F440124A4B1A6307E0484A126B6B
:1018900022F44002464B1A6300E000BF00BF444AF6
:1018A000126B0243424B1A6370474349086070470A
:1018B0003F49096A01433E4A116270473E49091D8A
:1018C000086070473D49086070473C49091D086041
:1018D000704729B1364A52690243354B5A6104E0D8
:1018E000334A52698243324B5A61704729B1304AB8
:1018F000926902432E4B9A6104E02D4A9269824319
:101900002B4B9A61704729B1294AD2690243284B6F
:10191000DA6104E0264AD2698243254BDA617047D6
:1019200029B1234A926A0243214B9A6204E0204A79
:10193000926A82431E4B9A62704729B11C4AD26850
:1019400002431B4BDA6004E0194AD2688243184B09
:10195000DA60704729B1164A12690243144B1A61C2
:1019600004E0134A12698243114B1A61704729B18E
:101970000F4A527A02430E4B5A7204E00C4A527AD2
:1019800082430B4B5A7270470948406A40F080709E
:1019900007494862704701460020054A92680A409C
:1019A0000AB1012000E000207047014988727047A9
:1019B0000010024000127A00D80042423C04424229
:1019C00010B50446F948844209D101218803FFF784
:1019D000B4FF00214FF48040FFF7AFFF32E0F4483E
:1019E000844209D101214804FFF7B4FF00214FF4DC
:1019F0000030FFF7AFFF25E0EE48844209D1012116
:101A00008804FFF7A7FF00214FF48020FFF7A2FF13
:101A100018E0E948844209D10121C804FFF79AFF80
:101A200000214FF40020FFF795FF0BE0E3488442CC
:101A300008D101210805FFF78DFF00214FF4801028
:101A4000FFF788FF10BD2DE9F04190B004460D4628
:101A50000027B8460026206820F001002060666854
:101A600026F44056A86806436660266841F20C607A
:101A70008643E96868680843296908430643266085
:101A8000A66826F4407668690643A66001A8FFF7B9
:101A900068FCC648844202D1DDF82C8013E0C448BB
:101AA000844202D1DDF830800DE0C248844202D188
:101AB000DDF8348007E0C048844202D1DDF8388088
:101AC00001E0DDF83C80206800F4004060B14FEA9E
:101AD00048002968B0FBF1F74FEA48002968B0FBDD
:101AE000F1F201FB120607E02868B8FBF0F728685E
:101AF000B8FBF0F100FB11862868B6EB500F00D35D
:101B00007F1C206800F4004038B1C7F342064FF64E
:101B1000F07107EA010040EA0607A78110B0BDE8AE
:101B2000F0814FF416510160002141608160C16075
:101B30000C21016100214161704710B5002242680B
:101B400022F47062D1E9003423438C682343CC68CB
:101B500023431A43426010BD00210160416081604F
:101B6000C160704721B1026842F00102026003E0E7
:101B7000026822F00102026070471AB103680B4349
:101B8000036002E003688B430360704721B1026881
:101B900042F40042026003E0026822F40042026064
:101BA000704721B1826842F40062826003E082687B
:101BB00022F400628260704721B1426842F4002240
:101BC000426003E0426822F400224260704721B183
:101BD000426842F48022426003E0426822F480229C
:101BE000426070471AB143680B43436002E04368A8
:101BF0008B434360704721B1426842F40042426027
:101C000003E0426822F400424260704721B142681A
:101C100042F40002426003E0426822F400024260A3
:101C20007047426902F07F42426142690A43426161
:101C30007047028A02F47F420282028A0A430282C9
:101C4000704721B1026842F00202026003E00268BC
:101C500022F0020202607047826822F44012826021
:101C600082680A438260704721B1426842F4801260
:101C7000426003E0426822F480124260704742688A
:101C800022F4C002426042680A4342607047C1F3D6
:101C90000802028570470146888CC0F3080070472F
:101CA000426822F07F424260426842EA016242603A
:101CB000704721B1026842F40052026003E00268FA
:101CC00022F4005202607047026822F4006202604F
:101CD00002680A4302607047426822F010024260C4
:101CE00042680A4342607047426822F02002426024
:101CF00042680A434260704721B1426842F4804220
:101D0000426003E0426822F480424260704721B1A1
:101D1000826842F00802826003E0826822F00802D2
:101D200082607047028AD2B20282028A42EA0122AB
:101D30000282704721B1826842F02002826003E093
:101D4000826822F020028260704721B1826842F0EE
:101D50001002826003E0826822F010028260704705
:101D6000826822F460228260826842EA4142826094
:101D70007047426922F07F424261426942EA016251
:101D800042617047826822F00402826082680A43DE
:101D90008260704721B1826842F00202826003E0F3
:101DA000826822F002028260704700000038014021
:101DB0000044004000480040004C004000500040FB
:101DC00021B1826842F48042826003E0826822F49A
:101DD000804282607047826822F40042826082689A
:101DE0000A4382607047026822F0787202600268DB
:101DF00042EA415202607047026822F4F81202601F
:101E0000026842EA0142026070471AB183680B43DC
:101E1000836002E083688B4383607047826822F4AA
:101E20000052826082680A4382607047F0B50346C0
:101E300000240026002500201846C1F30724CEB256
:101E4000012707FA06F5022C01D1001D02E0032C40
:101E500000D108301AB107682F43076002E0076815
:101E6000AF430760F0BD1AB1038B0B43038302E05D
:101E7000038B8B4303837047826822F48052826015
:101E800082680A438260704702460020D3690B4093
:101E90000BB1012000E0002070470162704770B56F
:101EA00002460B460024002100250020C3F307252D
:101EB000D9B2012606FA01F1012D02D1166831408E
:101EC00006E0022D02D15668314001E096683140AB
:101ED0001C0C012606FA04F4D669344011B10CB189
:101EE000012000E0002070BD10B5002200230A0C84
:101EF000012404FA02F3036210BD00000146082920
:101F000008D22E4880692E4A32F8212040EA024049
:101F10002A4A9061002070470146082907D22748C5
:101F20008069274A52F821201043244A90610020FA
:101F3000704710B5044600230BE001209840204074
:101F400018B11846FFF7E8FF02E01846FFF7D6FF82
:101F50005B1C082BF1DB002010BD00B5194840695F
:101F600040F40010174948611448808AC0B21349F0
:101F700088820846006880B20860084600681249F6
:101F800008430E49086008468088C0B28880084629
:101F900080680E490843094988600846C06880B2D5
:101FA000C8600846C068084908430449C860002062
:101FB000FFF7BFFF002000BD082070470010004859
:101FC000F837000800100240000055550000FFFFE0
:101FD00000BFFEE7012804D0022803D0032803D164
:101FE00001E001E000E000BF00BF00BFFEE71A48CB
:101FF00010B5007848B101F0ABF930B1174900EBEA
:10200000400001EB4010603810BD154810BD154A66
:1020100010B511690346082900D3FEE7124800EB0A
:102020000110491C1860116100F068FD012010BD0D
:1020300009490978002905D000684FF6FF71DFF8DB
:102040002CC000DF704704490978002903D00068DC
:10205000DFF81CC000DF704755010020C80E0020CB
:102060004C1200201C01002068110020E52B000804
:102070000D2B00080948804709480047FEE7FEE7A6
:10208000FEE7FEE7FEE7FEE7FEE7FEE7FEE7FEE728
:1020900004480549054A064B7047000071210008B5
:1020A00089010008B0120020B0180020B0140020F0
:1020B000B01400200CB50020019000906B4800681F
:1020C00040F480306949086000BF6848006800F447
:1020D000003000900198401C0190009818B90198B8
:1020E000B0F5A04FF1D16148006800F4003010B1A4
:1020F0000120009001E0002000900098012836D1D6
:1021000012205B49086059484068584948600846B1
:10211000406848600846406840F48060486008466F
:10212000406820F47C1048600846406840F4E8109D
:1021300048600846006840F08070086000BF4B4867
:10214000006800F000700028F9D04848406820F08E
:102150000300464948600846406840F00200486075
:1021600000BF4248406800F00C000828F9D10CBDBF
:1021700010B54048006840F470003E4908603B4894
:10218000006840F0010039490860084640683A4953
:1021900008403649486008460068384908403349D5
:1021A00008600846006820F48020086008464068FF
:1021B00020F4FE0048600846C06A20F00F00C862A4
:1021C0000846006B2E4908402849086300208860B3
:1021D000FFF770FF4FF0006026498039086010BD9E
:1021E00030B50021002000220023204C646804F058
:1021F0000C0121B1042906D0082925D107E0214C82
:10220000214D2C6024E01F4C1F4D2C6020E0174C0A
:10221000646804F47010154C646804F4803202247D
:1022200004EB904022B9194C4443174D2C600AE04E
:102230000E4CE46A04F00F04631C124CB4FBF3F47C
:102240004443114D2C6003E00E4C0F4D2C6000BF39
:1022500000BF064C6468C4F303140D4D295D0A4C9D
:102260002468CC40084D2C6030BD000000100240B6
:102270000020024088ED00E00CC07FF8FFFFF6FE72
:10228000CCFC00FF00127A004001002000093D0054
:1022900044010020004870474C1200207546FFF7AB
:1022A000F9FFAE4605006946534620F00700854613
:1022B00018B020B5FFF7ECFEBDE820404FF0000657
:1022C0004FF000074FF000084FF0000B21F007011E
:1022D000AC46ACE8C009ACE8C009ACE8C009ACE861
:1022E000C0098D4670470446AFF300802046FDF7D5
:1022F000ABFF70477047704701491820ABBEFEE73F
:1023000026000200704700000000000010B5002AFF
:1023100006DA22F00042D21D22F00703102203E069
:10232000D21C22F003030C2213B19C188C4201D959
:10233000012010BD024401448360C0E90021C91A94
:10234000D018884202D810600246F9E700201060D9
:1023500010BD000008480068C0010BD507480068A0
:10236000C00707D0054880380068002802DA044911
:102370000120087070470000FCED00E0800E00E0D6
:10238000780100204FF06042D36F002BFCD0036B2C
:10239000D367D36F002BFCD0C07840EA0120A2F8AD
:1023A0007C0070474FF06041CA6F002AFCD081F872
:1023B0007C00704770B50D46040003D012B9207838
:1023C000012801D0802070BD204600F097FA28B186
:1023D0002946204600F02CF8002070BD812070BDF9
:1023E00010B504468089002821D0608904EB800064
:1023F000006908606078022805D10021204600F0BD
:1024000073FC00F061FC04F10C0000BFD0E85F1F1A
:10241000491EC0E8521F002AF8D16089401C80B2D2
:102420006081E189884201D100206081042010BDD3
:1024300010B500F059FCBDE8104000F045BC0000AC
:10244000EFF3058109B182207047DFF808C000DF93
:102450007047000061330008EFF3058008B1822067
:102460007047EFF31480C00703D0DFF80CC000DF23
:10247000704700F07FBF00007533000888B0EFF3AD
:10248000058010B1822008B07047EFF3148010F07F
:102490000301134806D001291BD0022911D00329BA
:1024A00019D113E008A981F309880078C0070BD07F
:1024B0005FF0020080F31488BFF34F8FBFF36F8F7C
:1024C00009E00078C00706D10320F3E70078C007D1
:1024D00001D0FF20D7E7DFF80CC000DFD3E7000012
:1024E00030380008E53300080EB50246EFF30580EA
:1024F000A0B1802002B121B10090DDE9011203B04A
:1025000000BD11780129F7D101A91046FFF768FF36
:10251000042801D00020EFE71020EDE71046DFF897
:1025200008C000DFEBE7000051340008EFF305823C
:102530000AB100207047EFF31482064B02F001024B
:102540005B781A4303D0DFF810C000DF704700F05B
:102550009DBF0000540100208D340008DFF80CC03E
:1025600000DFDFF80CC000DFFEE70000FD340008EC
:1025700019350008DFF804C000DF70475135000846
:10258000094C4FF0FF3529462068FFF7ADFF0246A2
:102590000846102AF7D1FFF7EDFF0028F3D00246D6
:1025A00008469047EFE70000200100200748016837
:1025B0004FF0E02041610021816107210161044861
:1025C000016841F07F410160401770472C380008D6
:1025D00020ED00E0704750E8001F31B10B6840E883
:1025E0000032002AF7D108467047BFF32F8FFAE771
:1025F00010B568B161B10B3121F003020168446884
:102600000B1A1B1B934205D2084609680029F5D115
:10261000002010BD3CB121180368C1E900320160FF
:1026200001F1080010BD4260083010BD70B50D46C4
:10263000002812D04FF6FF71084C884204D222685D
:102640000146104600F07CFB20684570044800F00D
:10265000D7F8BDE8704000F045BC70BD5C010020BB
:102660001C1200200F4810B50D4942680E480B6837
:102670000068934204D00A60CB88421E1A448A80C4
:102680008A8880B282420AD100200860054800F0A2
:10269000B7F80146BDE81040024800F075BB10BD18
:1026A000700100201C1200206C01002070B5194D33
:1026B000E86800282CD0A88A401EA882002621E0C5
:1026C000A06838B161684160606810B1A16881603C
:1026D0006660A6600F482146183800F055FBA08AB6
:1026E000A8826078042804D10B49E08A098808444C
:1026F000A08201206070E068E860E06808B10561D0
:10270000E6602661A88A002802D1EC68002CD7D1A7
:1027100070BD0000341200206C01002070B5040070
:102720000FD00D4DA17801262868827891420CD9EE
:1027300000F046FB286846702046BDE8704000F077
:10274000D1BB064800F05CF8F7E766702146BDE8AB
:102750007040024800F018BB5C0100201C120020F1
:102760000321FFF763BF000010B50446008B084348
:1027700020836278618B062A18D0052A19D1084275
:1027800017D001EA0002628388432083204600F0CC
:1027900051FB01206070628B0821204600F042FB53
:1027A0002146BDE81040034800F0EEBA31EA0002CD
:1027B000EAD010BD1C120020814202D342688A4236
:1027C00001D80120704750E8002F0A6040E800124D
:1027D000002AF8D10020704768B161B108390022A1
:1027E00002E00246006830B18842FAD12AB100689E
:1027F0001060002070470120704700214160F8E719
:102800000146406842684A600B780022022B05D0DE
:10281000012B03D0032B01D04260704743680BB1FA
:102820009960426082607047810700D00020704745
:1028300070B5044600201546207001226270A17018
:1028400084F824106060A060E06020612062A082B3
:10285000E0822083608384F82500E08C18B9054865
:10286000FFF7B9FEE06229462046BDE8704000F05F
:102870001DB800009807002008B1082901D20120E6
:1028800070470144091F002201600A60426010463F
:102890007047000003480021016003490988C18096
:1028A00070470000700100202038000810B5C28C6D
:1028B000920803D10F4A1288C2F38D02C36A03EB58
:1028C0008202530700D5121F403A4FF08073C2E9CD
:1028D0000E1300234FEA030442F823405B1C0E2B27
:1028E000FAD3C369136282620163C06A024901605C
:1028F00010BD00001C380008A52E5AE2C18980894D
:10290000081A7047012202700022427082704260F1
:102910000281428110398281C1F38F01C1817047E8
:102920002DE9F041044640680E464FF0000804F1DE
:102930000C05E0B36078012701283DD0022813D0B0
:1029400003285BD10846FFF746FE050056D0204617
:10295000FFF756FF0446294600F05EFA67702046EE
:1029600000F068FA214620E02046FFF749FF0646BE
:10297000002100F051FA2189F06904EB810108611E
:10298000D5E85F0F401CC5E8510F0029F8D1208918
:10299000401C80B22081E189884201D1A4F80880DE
:1029A0007770304600F046FA3146184800E00CE0F7
:1029B000BDE8F04100F0E8B92046FFF721FF0446EA
:1029C0003246102100F02EFAC8E7A089E18988423A
:1029D00016D2208904EB8000C0F81060D5E85F0FA4
:1029E000401CC5E8510F0029F8D12089401C80B255
:1029F0002081E189884201D1A4F80880BDE8F081F6
:102A0000BDE8F0410320FFF7E5BA00001C120020EA
:102A100070B50446808915460026B8B3608904EB7A
:102A20008000006908606089401C80B26081E18993
:102A3000884200D16681606810B1607802280AD0AF
:102A400014F10C04D4E85F0F401EC4E8510F0029B4
:102A5000F8D1002070BD2046FFF7D2FE05460021C8
:102A600000F0DAF92189E86904EB81010861208925
:102A7000401C80B22081E189884200D1268128460D
:102A800000F0D8F92846FFF749FEE2E7FFE73DB13D
:102A90000A48626801682AB1204600F075F908E02A
:102AA000012070BD616001684E6000688460012093
:102AB000607008212846FFF7B9FDF1E75C010020AE
:102AC000411C13D00B4A4FF6FE7190420CD800EB1C
:102AD0004002C2EBC0120848036803EBC202521E58
:102AE000B2FBF3F0884200D9084670474FF6FF70FA
:102AF0007047000000093D003C38000803210170C8
:102B00000021418041608160C16070472DE9F04142
:102B10000446408820B1314DA1682A68914202D014
:102B2000FF20BDE8F081401E0004000C608053D1FE
:102B30002968086AA04209D1E068086208E0C26812
:102B4000A24202D1E268C26002E010460028F6D13B
:102B500091F824000A6A06E053681BB19B7883420F
:102B600000D91846D268002AF6D18870DFF8708044
:102B70006168012611B32046FFF742FE0746002197
:102B800000F04AF9384600F055F96680A760386AC7
:102B9000E0603C622968D8F804008A788078824234
:102BA00001D3384616E00E4800F0EEF839460C48DE
:102BB00000F0EAF8286846707E700AE0D8F8041041
:102BC0008A782968824207D9054800F0DDF828682C
:102BD00046700020FFF7A2FD0020A2E75C01002064
:102BE0001C12002070B5184D0E4604464188286816
:102BF00039B1A168814209D16088401C6080002001
:102C000070BDA060016AE1600462F5E776B18A7880
:102C10008078824203D28870A06800F0DBF8606898
:102C200030B12046296800F0AFF808E0012070BDFF
:102C3000286860602968002048602868846009214D
:102C40003046FFF7F3FCF1E75C01002070B51B484C
:102C5000012102685170006800F0B2F8184D6C78DC
:102C600017E000BF05EBC40148680278E2B1012A11
:102C70001FD000F00BF9E878641C844200D10024D6
:102C80000F48801CD0E84F1F491EC0E8421F002A91
:102C9000F8D1A8780028E5D16C700A48FFF7B0FD9C
:102CA000BDE8704000F01EB9098989B2FFF75CFDEC
:102CB000E1E78968FFF734FEDDE700005C010020F2
:102CC000080E00201C1200200548017811B10121D6
:102CD0004170704703494FF0805008607047000012
:102CE0006401002004ED00E0F0B4144A941CD5788F
:102CF0004FEA0206D4E84F3FAB4202D1BFF32F8F19
:102D00000EE05B1CC4E8473F002FF3D1D6E84F3FED
:102D10005C1CAC4200D10024C6E8474F002FF5D11F
:102D2000D4789C4205D902EBC302C2E90101F0BC90
:102D30007047F0BC0220FFF74DB90000080E0020DC
:102D4000104A10B5D368ABB113469B8A03E08CB12F
:102D50002246A48A2344D4688B42F8D3C460D0604E
:102D60000261C46804B12061591A8182908A401AB4
:102D7000908210BD0024C460D060C91A02619182A3
:102D8000848210BD3412002030B502780023022A5C
:102D900003D0012A01D0032A00D101238C7800E05E
:102DA0001046426812B19578A542F9D24A60416056
:102DB0001BB102B19160886030BD0020FBE70000CC
:102DC00003494A6842600022826048607047000000
:102DD0001C12002010B5836804462BB960780128C6
:102DE0000ED1084B03E09B6818780028FBD02046E2
:102DF00000F034F82146BDE810401846FFF7C4BF84
:102E000010BD00001C12002090F82510806A09B146
:102E1000603070472030704710B50C46FFF7F4FF64
:102E2000046010BD70B515460C46FFF7EDFFC0E914
:102E3000004570BD10B5016900290ED0C268CA6096
:102E4000C36800223BB18B8A848A23448B82C36887
:102E50001961C26000E08A82026110BD816839B1E7
:102E600042684A604168002901D0806888607047E4
:102E7000054906E04A68824202D1406848607047CE
:102E800011460029F6D170471C12002010B5416888
:102E900081B1FFF7B5FC0446FFF7CCFF012060705D
:102EA00001462046FFF7B8FF2146BDE81040034821
:102EB000FFF76ABF4188491C418010BD1C120020E9
:102EC00006480068D0E90A10814203D3006804492B
:102ED000884202D00120FFF77DB870475C010020D6
:102EE000A52E5AE20749022248604270064A12782B
:102EF000002A05D006C98A4202D0C078FFF752BA2C
:102F0000704700005C0100207801002070B5FFF7D9
:102F100021FA00200446204A204902E042F82040DD
:102F2000401C0B889842F9D31D48342201881D4863
:102F3000FFF7ECF91C48008880B240F000421B48C3
:102F400001681B48FFF7E2F91A48082201881A486D
:102F50000068FFF7DBF9194DFF20194AE870EC848F
:102F600000212846FFF764FC1648042101704460E4
:102F700015480170C46004618482144815490560D5
:102F8000022068701248047044700978C170BDE86E
:102F90007040FFF77FBC00008C0E0020183800083E
:102FA00044380008200600201C3800084838000873
:102FB000980700206C38000828010020E811002044
:102FC000D11F00081C120020341200205C010020D8
:102FD000080E0020503800081A4810B5016841F466
:102FE0007F01016000684FF07F4101EA0020154930
:102FF000C0431439B0FA80F00968C0F10800C1F389
:103000000221814200DB481C0E49091F0B686FF04A
:103010008072824063F317020A60FFF7C7FA0A4919
:10302000002808600DDB094AFF21815400F01F02CF
:103030000121914040114FF0E02202EB8000C0F8E6
:10304000001110BD20ED00E06801002000E400E068
:103050000C4810B50268012151700068FFF7B0FEFE
:10306000FFF700FB08480168491C0160FFF71EFBE1
:1030700000F07AFA0548FFF7C3FBBDE81040FFF700
:1030800031BF00005C0100206C0100201C120020F8
:10309000002805D0810702D10178002900D0002046
:1030A0007047000030B50C4C0023626805E01589BC
:1030B0008D4204D813461268491B002AF7D189B201
:1030C0000260018112B11589691A11810BB1186072
:1030D00030BD606030BD0000540100202DE9F0419A
:1030E0001E46174680460C4611F0FF0F00D14C1CBF
:1030F0001748FFF770FA050028D0C4F30F20EF62DD
:10310000E884E1B242462846EE61FFF791FB0124D4
:103110001048114906E000BF00EB840252F8042C6D
:1031200022B1641C0A889442F6D9002400EB840082
:1031300040F8045C0948EC70007818B10121284679
:10314000FFF720F92846FFF7E9FA2046BDE8F081AD
:10315000200600208C0E002018380008780100207E
:103160002DE9F05F564DDFF850A1DFF85091296846
:103170004FF00008012618B1CA78AB46824241D10F
:10318000474681F80180FDF77AF829688862FFF7E1
:1031900097FE2868B046046A1AE06068B8B1204615
:1031A000FFF72EFB06460021FFF736FE3046FFF7FD
:1031B00041FE86F8018031464248FFF7E5FDA4F85C
:1031C0000280A660316AE1603462E46800E0E4688D
:1031D000002CE2D12868C27809EB820141F8047C16
:1031E000C16A3948FFF7E8FA2868C7629AF8001000
:1031F00011B10021FFF7C6F834482968FFF7DCFA5F
:103200002F6053E03249098888420DD809EB8007C6
:1032100057F8045C45B12846FFF720FE2846FFF723
:1032200009FEB1462C6A1DE0FF20BDE8F09F6068F2
:10323000B8B12046FFF7E4FA06460021FFF7ECFD9F
:103240003046FFF7F7FD86F8019031461D48FFF73D
:103250009BFDA4F80290A660316AE1603462E468E4
:1032600000E0E468002CE2D147F8048C444616489C
:10327000E96AFFF7A1FAEC629AF8000018B10021A0
:103280002846FFF77FF829461048FFF795FA0D48C2
:10329000DBF8001040688B7882789A4209D981F86F
:1032A00001900848DBF80010FFF76EFD0020FFF7E3
:1032B00035FA0020B9E70000780100208C0E0020CC
:1032C0005C0100201C12002098070020200600202E
:1032D0001838000870B51A4D80B11A4A1288904209
:1032E0001FD8194A02EB800050F8044CCCB1A170F1
:1032F00084F824102868A04205D014E02868817062
:10330000286880F82410114840688078884215D9D0
:103310000E482968FFF738FD296801204870002011
:103320000AE0FF2070BD2046FFF754FD60780128B9
:1033300004D10648FFF764FAFFF7F0F9002070BDEA
:103340005C010020183800088C0E00201C120020A0
:1033500002480068002800D0C07870475C01002057
:1033600010B5002805D0FFF7ABFB80B2FFF7F8F9E6
:10337000402010BD10B5134C207860B912484007AA
:1033800005D1124801681048FFF776FA08B1852088
:1033900010BDFFF7BBFD0E49FF200968887020783B
:1033A00058B900210B4800F041F80B490860002192
:1033B0000A4800F06BF80A490860012020700020DC
:1033C000607010BD54010020580C00204C380008DB
:1033D0005C010020643800082001002054380008F7
:1033E0001C01002070B50F4D687808B1002070BD39
:1033F0000D4C206890F824100020FFF76BFF206828
:10340000C178FF2903D1816A203181F3098861687D
:1034100011B9606000202060FFF7DEFD01206870B8
:10342000E4E70000540100205C01002010B5040016
:1034300005D0216819B1606808B102780AB100208E
:1034400010BD8900103189B2FFF75CFA606810BDC9
:103450003EB504000D464FF0800012D021780129BE
:103460000FD12846FFF72CFB82B201A92046FFF7B7
:10347000CFFA012801D0102003E00DB1402000E078
:103480000020DDE9011203B030BD000070B50E462A
:1034900004002BD0206848B3B4F9040010F1030FE6
:1034A00024DB032822DCE16829B11148FFF7A0F8EA
:1034B00005001BD000E00025B4F90400E168001D00
:1034C00040EA012133462A462068FFF707FE40B153
:1034D000084901EB8000084950F8040C826A5163E6
:1034E00070BD1DB129460248FFF776F9002070BD76
:1034F000580C00208C0E00205D25000810B5FFF749
:1035000027FF002804D0034901EB800050F8040C89
:1035100010BD00008C0E002010B5FFF7B9FD18B1EA
:10352000C18C19B1C46A02E0802010BD0024C078AB
:10353000FFF716FEFF2806D01CB121460348FFF70F
:103540004BF9002010BD812010BD0000580C002058
:1035500010B5FFF769F920B101690A68C168104622
:1035600010BD0020014610BD2DE9F041114E7468D8
:10357000002C18D02089104F401E20814FF00108E8
:103580000EE0254624687460002229463868FEF75C
:1035900011FF6879012808D085F80480002C02D03A
:1035A00020890028EDD0BDE8F08169892846FFF721
:1035B00079FDF3E754010020200100204FF0407016
:1035C000E1EE100A70470000FF080008000000004C
:1035D0000100000000000000F906000800000000E3
:1035E00001000000000000002104000800000000AD
:1035F0000100000000000000000005800F800A00AC
:103600001B801E0014001180338036003C0039807E
:1036100028002D8027802200638066006C0069806E
:1036200078007D8077807200500055805F805A005E
:103630004B804E0044004180C380C600CC00C9804E
:10364000D800DD80D780D200F000F580FF80FA003E
:10365000EB80EE00E400E180A000A580AF80AA002E
:10366000BB80BE00B400B180938096009C0099801E
:1036700088008D8087808200838186018C0189810A
:1036800098019D8197819201B001B581BF81BA01F6
:10369000AB81AE01A401A181E001E581EF81EA01E6
:1036A000FB81FE01F401F181D381D601DC01D981D6
:1036B000C801CD81C781C201400145814F814A01C6
:1036C0005B815E0154015181738176017C017981B6
:1036D00068016D8167816201238126012C012981A6
:1036E00038013D8137813201100115811F811A0196
:1036F0000B810E0104010181038306030C0309837E
:1037000018031D8317831203300335833F833A0365
:103710002B832E0324032183600365836F836A0355
:103720007B837E0374037183538356035C03598345
:1037300048034D8347834203C003C583CF83CA0335
:10374000DB83DE03D403D183F383F603FC03F98325
:10375000E803ED83E783E203A383A603AC03A98315
:10376000B803BD83B783B203900395839F839A0305
:103770008B838E0384038183800285828F828A02F9
:103780009B829E0294029182B382B602BC02B982ED
:10379000A802AD82A782A202E382E602EC02E982DD
:1037A000F802FD82F782F202D002D582DF82DA02CD
:1037B000CB82CE02C402C182438246024C024982BD
:1037C00058025D8257825202700275827F827A02AD
:1037D0006B826E0264026182200225822F822A029D
:1037E0003B823E0234023182138216021C0219828D
:1037F00008020D82078202020001000000020000A0
:10380000000400000008000000100000002000007C
:10381000004000000080000007000000C800020116
:103820000500010000A24A04480000003F19010001
:1038300001000000020001004B000400E80300004A
:103840000000000078010000C0040000B00100008A
:1038500010000000812500080200000001000000A7
:10386000C800000004000000A80E002000000000B6
:1038700090380008000000207C010000C40100080E
:10388000703900087C010020341700002002000875
:1038900001123460EA0532031615CD5B0703250AD1
:1038A0000CB80B12BE1264528C380F415445300DC7
:1038B00041542B434D47463D310A580B5343533D2A
:1038C000202247534D22195A5219480E4D47444160
:1038D0003D2244454C20414C4C1D480E5354543D10
:1038E00022696E7465726E6574134D4949435209BD
:1038F0005B4653091E5053544152291816544350E5
:10390000222C223035342E3230332E3232392E32C0
:103910003530125D383038313D3E5053454E440B02
:103920007E474154543F0A5983600E4950434C4FDF
:1039300053450D1A444D410A2D01020304041D068E
:103940000708090E111202120412061208120A12B6
:103950000C1210122012402A801701151B390A2957
:1039600029443142C884A24A048954012600000037
:040000050800018965
:00000001FF
